{
    "_format": "hh-sol-artifact-1",
    "contractName": "MyToken",
    "sourceName": "contracts/Token.sol",
    "abi": [
        {
            "inputs": [
                {
                    "internalType": "string",
                    "name": "_name",
                    "type": "string"
                },
                {
                    "internalType": "string",
                    "name": "symbol",
                    "type": "string"
                }
            ],
            "stateMutability": "nonpayable",
            "type": "constructor"
        },
        {
            "anonymous": false,
            "inputs": [
                {
                    "indexed": true,
                    "internalType": "address",
                    "name": "owner",
                    "type": "address"
                },
                {
                    "indexed": true,
                    "internalType": "address",
                    "name": "spender",
                    "type": "address"
                },
                {
                    "indexed": false,
                    "internalType": "uint256",
                    "name": "value",
                    "type": "uint256"
                }
            ],
            "name": "Approval",
            "type": "event"
        },
        {
            "anonymous": false,
            "inputs": [
                {
                    "indexed": true,
                    "internalType": "address",
                    "name": "previousOwner",
                    "type": "address"
                },
                {
                    "indexed": true,
                    "internalType": "address",
                    "name": "newOwner",
                    "type": "address"
                }
            ],
            "name": "OwnershipTransferred",
            "type": "event"
        },
        {
            "anonymous": false,
            "inputs": [
                {
                    "indexed": true,
                    "internalType": "address",
                    "name": "from",
                    "type": "address"
                },
                {
                    "indexed": true,
                    "internalType": "address",
                    "name": "to",
                    "type": "address"
                },
                {
                    "indexed": false,
                    "internalType": "uint256",
                    "name": "value",
                    "type": "uint256"
                }
            ],
            "name": "Transfer",
            "type": "event"
        },
        {
            "inputs": [
                {
                    "internalType": "address",
                    "name": "",
                    "type": "address"
                }
            ],
            "name": "addressTime",
            "outputs": [
                {
                    "internalType": "uint256",
                    "name": "",
                    "type": "uint256"
                }
            ],
            "stateMutability": "view",
            "type": "function"
        },
        {
            "inputs": [
                {
                    "internalType": "address",
                    "name": "owner",
                    "type": "address"
                },
                {
                    "internalType": "address",
                    "name": "spender",
                    "type": "address"
                }
            ],
            "name": "allowance",
            "outputs": [
                {
                    "internalType": "uint256",
                    "name": "",
                    "type": "uint256"
                }
            ],
            "stateMutability": "view",
            "type": "function"
        },
        {
            "inputs": [
                {
                    "internalType": "address",
                    "name": "spender",
                    "type": "address"
                },
                {
                    "internalType": "uint256",
                    "name": "amount",
                    "type": "uint256"
                }
            ],
            "name": "approve",
            "outputs": [
                {
                    "internalType": "bool",
                    "name": "",
                    "type": "bool"
                }
            ],
            "stateMutability": "nonpayable",
            "type": "function"
        },
        {
            "inputs": [
                {
                    "internalType": "address",
                    "name": "account",
                    "type": "address"
                }
            ],
            "name": "balanceOf",
            "outputs": [
                {
                    "internalType": "uint256",
                    "name": "",
                    "type": "uint256"
                }
            ],
            "stateMutability": "view",
            "type": "function"
        },
        {
            "inputs": [
                {
                    "internalType": "uint256",
                    "name": "_amount",
                    "type": "uint256"
                }
            ],
            "name": "buy",
            "outputs": [],
            "stateMutability": "payable",
            "type": "function"
        },
        {
            "inputs": [],
            "name": "decimals",
            "outputs": [
                {
                    "internalType": "uint8",
                    "name": "",
                    "type": "uint8"
                }
            ],
            "stateMutability": "view",
            "type": "function"
        },
        {
            "inputs": [
                {
                    "internalType": "address",
                    "name": "spender",
                    "type": "address"
                },
                {
                    "internalType": "uint256",
                    "name": "subtractedValue",
                    "type": "uint256"
                }
            ],
            "name": "decreaseAllowance",
            "outputs": [
                {
                    "internalType": "bool",
                    "name": "",
                    "type": "bool"
                }
            ],
            "stateMutability": "nonpayable",
            "type": "function"
        },
        {
            "inputs": [],
            "name": "faucet",
            "outputs": [],
            "stateMutability": "nonpayable",
            "type": "function"
        },
        {
            "inputs": [
                {
                    "internalType": "address",
                    "name": "spender",
                    "type": "address"
                },
                {
                    "internalType": "uint256",
                    "name": "addedValue",
                    "type": "uint256"
                }
            ],
            "name": "increaseAllowance",
            "outputs": [
                {
                    "internalType": "bool",
                    "name": "",
                    "type": "bool"
                }
            ],
            "stateMutability": "nonpayable",
            "type": "function"
        },
        {
            "inputs": [
                {
                    "internalType": "address",
                    "name": "to",
                    "type": "address"
                },
                {
                    "internalType": "uint256",
                    "name": "amount",
                    "type": "uint256"
                }
            ],
            "name": "mint",
            "outputs": [],
            "stateMutability": "nonpayable",
            "type": "function"
        },
        {
            "inputs": [],
            "name": "name",
            "outputs": [
                {
                    "internalType": "string",
                    "name": "",
                    "type": "string"
                }
            ],
            "stateMutability": "view",
            "type": "function"
        },
        {
            "inputs": [],
            "name": "owner",
            "outputs": [
                {
                    "internalType": "address",
                    "name": "",
                    "type": "address"
                }
            ],
            "stateMutability": "view",
            "type": "function"
        },
        {
            "inputs": [],
            "name": "renounceOwnership",
            "outputs": [],
            "stateMutability": "nonpayable",
            "type": "function"
        },
        {
            "inputs": [],
            "name": "symbol",
            "outputs": [
                {
                    "internalType": "string",
                    "name": "",
                    "type": "string"
                }
            ],
            "stateMutability": "view",
            "type": "function"
        },
        {
            "inputs": [],
            "name": "totalSupply",
            "outputs": [
                {
                    "internalType": "uint256",
                    "name": "",
                    "type": "uint256"
                }
            ],
            "stateMutability": "view",
            "type": "function"
        },
        {
            "inputs": [
                {
                    "internalType": "address",
                    "name": "to",
                    "type": "address"
                },
                {
                    "internalType": "uint256",
                    "name": "amount",
                    "type": "uint256"
                }
            ],
            "name": "transfer",
            "outputs": [
                {
                    "internalType": "bool",
                    "name": "",
                    "type": "bool"
                }
            ],
            "stateMutability": "nonpayable",
            "type": "function"
        },
        {
            "inputs": [
                {
                    "internalType": "address",
                    "name": "from",
                    "type": "address"
                },
                {
                    "internalType": "address",
                    "name": "to",
                    "type": "address"
                },
                {
                    "internalType": "uint256",
                    "name": "amount",
                    "type": "uint256"
                }
            ],
            "name": "transferFrom",
            "outputs": [
                {
                    "internalType": "bool",
                    "name": "",
                    "type": "bool"
                }
            ],
            "stateMutability": "nonpayable",
            "type": "function"
        },
        {
            "inputs": [
                {
                    "internalType": "address",
                    "name": "newOwner",
                    "type": "address"
                }
            ],
            "name": "transferOwnership",
            "outputs": [],
            "stateMutability": "nonpayable",
            "type": "function"
        },
        {
            "inputs": [],
            "name": "withdraw",
            "outputs": [],
            "stateMutability": "nonpayable",
            "type": "function"
        }
    ],
    "bytecode": "0x6080604052670de0b6b3a76400006006553480156200001d57600080fd5b506040516200137538038062001375833981016040819052620000409162000355565b81518290829062000059906003906020850190620001f8565b5080516200006f906004906020840190620001f8565b5050506200008c62000086620000ba60201b60201c565b620000be565b620000b2336200009f6012600a62000423565b620000ac9060c8620004f1565b62000110565b50506200057c565b3390565b600580546001600160a01b038381166001600160a01b0319831681179093556040519116919082907f8be0079c531659141344cd1fd0a4f28419497f9722a3daafe3b4186f6b6457e090600090a35050565b6001600160a01b0382166200016b5760405162461bcd60e51b815260206004820152601f60248201527f45524332303a206d696e7420746f20746865207a65726f206164647265737300604482015260640160405180910390fd5b80600260008282546200017f9190620003bf565b90915550506001600160a01b03821660009081526020819052604081208054839290620001ae908490620003bf565b90915550506040518181526001600160a01b038316906000907fddf252ad1be2c89b69c2b068fc378daa952ba7f163c4a11628f55a4df523b3ef9060200160405180910390a35050565b828054620002069062000513565b90600052602060002090601f0160209004810192826200022a576000855562000275565b82601f106200024557805160ff191683800117855562000275565b8280016001018555821562000275579182015b828111156200027557825182559160200191906001019062000258565b506200028392915062000287565b5090565b5b8082111562000283576000815560010162000288565b600082601f830112620002b057600080fd5b81516001600160401b0380821115620002cd57620002cd62000566565b604051601f8301601f19908116603f01168101908282118183101715620002f857620002f862000566565b816040528381526020925086838588010111156200031557600080fd5b600091505b838210156200033957858201830151818301840152908201906200031a565b838211156200034b5760008385830101525b9695505050505050565b600080604083850312156200036957600080fd5b82516001600160401b03808211156200038157600080fd5b6200038f868387016200029e565b93506020850151915080821115620003a657600080fd5b50620003b5858286016200029e565b9150509250929050565b60008219821115620003d557620003d562000550565b500190565b600181815b808511156200041b578160001904821115620003ff57620003ff62000550565b808516156200040d57918102915b93841c9390800290620003df565b509250929050565b60006200043460ff8416836200043b565b9392505050565b6000826200044c57506001620004eb565b816200045b57506000620004eb565b81600181146200047457600281146200047f576200049f565b6001915050620004eb565b60ff84111562000493576200049362000550565b50506001821b620004eb565b5060208310610133831016604e8410600b8410161715620004c4575081810a620004eb565b620004d08383620003da565b8060001904821115620004e757620004e762000550565b0290505b92915050565b60008160001904831182151516156200050e576200050e62000550565b500290565b600181811c908216806200052857607f821691505b602082108114156200054a57634e487b7160e01b600052602260045260246000fd5b50919050565b634e487b7160e01b600052601160045260246000fd5b634e487b7160e01b600052604160045260246000fd5b610de9806200058c6000396000f3fe6080604052600436106101145760003560e01c8063715018a6116100a0578063d96a094a11610064578063d96a094a146102ee578063dd62ed3e14610301578063de5f72fd14610321578063f179b66d14610336578063f2fde38b1461036357600080fd5b8063715018a61461025c5780638da5cb5b1461027157806395d89b4114610299578063a457c2d7146102ae578063a9059cbb146102ce57600080fd5b8063313ce567116100e7578063313ce567146101b357806339509351146101cf5780633ccfd60b146101ef57806340c10f191461020657806370a082311461022657600080fd5b806306fdde0314610119578063095ea7b31461014457806318160ddd1461017457806323b872dd14610193575b600080fd5b34801561012557600080fd5b5061012e610383565b60405161013b9190610cc8565b60405180910390f35b34801561015057600080fd5b5061016461015f366004610c85565b610415565b604051901515815260200161013b565b34801561018057600080fd5b506002545b60405190815260200161013b565b34801561019f57600080fd5b506101646101ae366004610c49565b61042d565b3480156101bf57600080fd5b506040516012815260200161013b565b3480156101db57600080fd5b506101646101ea366004610c85565b610451565b3480156101fb57600080fd5b50610204610473565b005b34801561021257600080fd5b50610204610221366004610c85565b6104d5565b34801561023257600080fd5b50610185610241366004610bf4565b6001600160a01b031660009081526020819052604090205490565b34801561026857600080fd5b506102046104e3565b34801561027d57600080fd5b506005546040516001600160a01b03909116815260200161013b565b3480156102a557600080fd5b5061012e610519565b3480156102ba57600080fd5b506101646102c9366004610c85565b610528565b3480156102da57600080fd5b506101646102e9366004610c85565b6105a3565b6102046102fc366004610caf565b6105b1565b34801561030d57600080fd5b5061018561031c366004610c16565b6105f8565b34801561032d57600080fd5b50610204610623565b34801561034257600080fd5b50610185610351366004610bf4565b60076020526000908152604090205481565b34801561036f57600080fd5b5061020461037e366004610bf4565b6106a3565b60606003805461039290610d78565b80601f01602080910402602001604051908101604052809291908181526020018280546103be90610d78565b801561040b5780601f106103e05761010080835404028352916020019161040b565b820191906000526020600020905b8154815290600101906020018083116103ee57829003601f168201915b5050505050905090565b60003361042381858561073b565b5060019392505050565b60003361043b85828561085f565b6104468585856108d9565b506001949350505050565b60003361042381858561046483836105f8565b61046e9190610d52565b61073b565b6005546001600160a01b031633146104a65760405162461bcd60e51b815260040161049d90610d1d565b60405180910390fd5b60405133904780156108fc02916000818181858888f193505050501580156104d2573d6000803e3d6000fd5b50565b6104df8282610aa7565b5050565b6005546001600160a01b0316331461050d5760405162461bcd60e51b815260040161049d90610d1d565b6105176000610b86565b565b60606004805461039290610d78565b6000338161053682866105f8565b9050838110156105965760405162461bcd60e51b815260206004820152602560248201527f45524332303a2064656372656173656420616c6c6f77616e63652062656c6f77604482015264207a65726f60d81b606482015260840161049d565b610446828686840361073b565b6000336104238185856108d9565b600034116105ee5760405162461bcd60e51b815260206004820152600a60248201526973656e64206d6f6e657960b01b604482015260640161049d565b6104d23382610aa7565b6001600160a01b03918216600090815260016020908152604080832093909416825291909152205490565b33600090815260076020526040902054421161067a5760405162461bcd60e51b81526020600482015260166024820152756e65656420746f2077616974206d6f72652074696d6560501b604482015260640161049d565b61068633600654610aa7565b61069142603c610d52565b33600090815260076020526040902055565b6005546001600160a01b031633146106cd5760405162461bcd60e51b815260040161049d90610d1d565b6001600160a01b0381166107325760405162461bcd60e51b815260206004820152602660248201527f4f776e61626c653a206e6577206f776e657220697320746865207a65726f206160448201526564647265737360d01b606482015260840161049d565b6104d281610b86565b6001600160a01b03831661079d5760405162461bcd60e51b8152602060048201526024808201527f45524332303a20617070726f76652066726f6d20746865207a65726f206164646044820152637265737360e01b606482015260840161049d565b6001600160a01b0382166107fe5760405162461bcd60e51b815260206004820152602260248201527f45524332303a20617070726f766520746f20746865207a65726f206164647265604482015261737360f01b606482015260840161049d565b6001600160a01b0383811660008181526001602090815260408083209487168084529482529182902085905590518481527f8c5be1e5ebec7d5bd14f71427d1e84f3dd0314c0f7b2291e5b200ac8c7c3b925910160405180910390a3505050565b600061086b84846105f8565b905060001981146108d357818110156108c65760405162461bcd60e51b815260206004820152601d60248201527f45524332303a20696e73756666696369656e7420616c6c6f77616e6365000000604482015260640161049d565b6108d3848484840361073b565b50505050565b6001600160a01b03831661093d5760405162461bcd60e51b815260206004820152602560248201527f45524332303a207472616e736665722066726f6d20746865207a65726f206164604482015264647265737360d81b606482015260840161049d565b6001600160a01b03821661099f5760405162461bcd60e51b815260206004820152602360248201527f45524332303a207472616e7366657220746f20746865207a65726f206164647260448201526265737360e81b606482015260840161049d565b6001600160a01b03831660009081526020819052604090205481811015610a175760405162461bcd60e51b815260206004820152602660248201527f45524332303a207472616e7366657220616d6f756e7420657863656564732062604482015265616c616e636560d01b606482015260840161049d565b6001600160a01b03808516600090815260208190526040808220858503905591851681529081208054849290610a4e908490610d52565b92505081905550826001600160a01b0316846001600160a01b03167fddf252ad1be2c89b69c2b068fc378daa952ba7f163c4a11628f55a4df523b3ef84604051610a9a91815260200190565b60405180910390a36108d3565b6001600160a01b038216610afd5760405162461bcd60e51b815260206004820152601f60248201527f45524332303a206d696e7420746f20746865207a65726f206164647265737300604482015260640161049d565b8060026000828254610b0f9190610d52565b90915550506001600160a01b03821660009081526020819052604081208054839290610b3c908490610d52565b90915550506040518181526001600160a01b038316906000907fddf252ad1be2c89b69c2b068fc378daa952ba7f163c4a11628f55a4df523b3ef9060200160405180910390a35050565b600580546001600160a01b038381166001600160a01b0319831681179093556040519116919082907f8be0079c531659141344cd1fd0a4f28419497f9722a3daafe3b4186f6b6457e090600090a35050565b80356001600160a01b0381168114610bef57600080fd5b919050565b600060208284031215610c0657600080fd5b610c0f82610bd8565b9392505050565b60008060408385031215610c2957600080fd5b610c3283610bd8565b9150610c4060208401610bd8565b90509250929050565b600080600060608486031215610c5e57600080fd5b610c6784610bd8565b9250610c7560208501610bd8565b9150604084013590509250925092565b60008060408385031215610c9857600080fd5b610ca183610bd8565b946020939093013593505050565b600060208284031215610cc157600080fd5b5035919050565b600060208083528351808285015260005b81811015610cf557858101830151858201604001528201610cd9565b81811115610d07576000604083870101525b50601f01601f1916929092016040019392505050565b6020808252818101527f4f776e61626c653a2063616c6c6572206973206e6f7420746865206f776e6572604082015260600190565b60008219821115610d7357634e487b7160e01b600052601160045260246000fd5b500190565b600181811c90821680610d8c57607f821691505b60208210811415610dad57634e487b7160e01b600052602260045260246000fd5b5091905056fea2646970667358221220cee14812e7184060eabb6a118dce82ddf7248a6dcccef19a93aaefc932873ca864736f6c63430008070033",
    "linkReferences": {},
    "deployedLinkReferences": {}
}